:040000003DEF02F0DE
:08000800046ED8CF05F0E0CF33
:1000100006F00001E9CF0CF0EACF07F0E1CF08F0DD
:10002000E2CF09F0D9CF0AF0DACF0BF0F3CF12F01C
:10003000F4CF13F0FACF14F000C00EF001C00FF0AF
:1000400002C010F003C011F09DA02AEF00F09EB096
:100050004BEF00F00EC000F00FC001F010C002F036
:1000600011C003F00CC0E9FF07C0EAFF078E08C00B
:10007000E1FF09C0E2FF0AC0D9FF0BC0DAFF12C0DE
:10008000F3FF13C0F4FF14C0FAFF045006C0E0FFF2
:1000900005C0D8FF10009E0ECF6E580ECE6E388071
:1000A0009E902AEF00F0196A186A176A166A1D6A8C
:1000B0001C6A1B6A1A6A216A206A1F6A1E6A256AFC
:1000C000246A236A226A296A286A276A266A2D6AAC
:1000D0002C6A2B6A2A6A316A306A2F6A320E2E6EB7
:1000E000356A346A336A140E326E366A64EF02F08F
:1000F000EA6A390EE96EEF500EE0010E016E006AF9
:10010000002EFED7012EFBD74A0E006E002EFED722
:1001100000D0EF2EF2D767EF02F0456A466A010E73
:10012000476EDA6AD96A4A6A3D0E496EEA6A410E3A
:10013000E96E4AC0E2FF49C0E1FF47C048F0D890ED
:10014000E550EE02F3504522F4504622482EF7D7F0
:1001500045C0DEFF46C045F0466AD8B0462A492A67
:10016000D8B44A2A472A47500508E0E11200325025
:100170002E5C226E33502F58236E34503058246E2C
:1001800035503158256E406A3F6A3E6A290E3D6EF1
:1001900025C044F024C043F023C042F022C041F007
:1001A000BCDF00501E24396E01501F203A6E0250F1
:1001B00020203B6E035021203C6E406A3F6A3E6A1D
:1001C000480E3D6E29C044F028C043F027C042F0DD
:1001D00026C041F0A2DF0050395E01503A5A025069
:1001E0003B5A03503C5A2A34006E2B34016E2C3497
:1001F000026E2D34036E00360136023603360036A9
:100200000136023603360036013602360336003632
:10021000013602360336E00E0016005039241A6EFD
:1002200001503A201B6E02503B201C6E03503C20B4
:100230001D6E1D30196E1C30186E1B30176E1A3073
:10024000166E193218321732163219321832173226
:1002500016321F0E19161DC021F01CC020F01BC045
:100260001FF01AC01EF029C02DF028C02CF027C0A6
:100270002BF026C02AF025C029F024C028F023C086
:1002800027F022C026F0195207E1185205E1175253
:1002900003E11650FE0804E2196A186A176A166824
:1002A000F250006EF29E36C0A9FF16C0A8FFA69CB1
:1002B000A69EA6840F01550EA76EAA0EA76EA68253
:1002C000A6B2FED7A6940050F212362A000176EFAD
:1002D00002F0928080A005D0196A186A176A166821
:1002E0001AD0928280A206D0196A186A176ABF0EC5
:1002F000166E11D0928480A406D0196A186A176A03
:100300007F0E166E08D0928680A605D0196A186AEC
:10031000176A3F0E166EF250006EF29E36C0A9FFAD
:1003200016C0A8FFA69CA69EA6840F01550EA76E18
:10033000AA0EA76EA682A6B2FED7A6940050F2120D
:10034000362A00017DEF02F0196A186A176A166AE8
:100350001D6A1C6A1B6A1A6A216A206A1F6A1E6A61
:10036000256A246A236A226A296A286A276A266A11
:100370002D6A2C6A2B6A2A6AF250006EF29E36C0F1
:10038000A9FF16C0A8FFA69CA69EA6840F01550E25
:10039000A76EAA0EA76EA682A6B2FED7A69400509C
:1003A000F212362A000183EF02F0195209E11852C5
:1003B00007E1175205E11650FE0802E3000E01D0D6
:1003C000010E016E1200938E000E81BE010E016EB1
:1003D0001200938A000E81BA010E016E20EF02F026
:1003E00037C039F03750FC0F2EE2040F27EF02F030
:1003F000DCDF015203E0030E396E08D0E4DF015266
:1004000003E0020E396E02D0010E396E1CD0CDDF32
:10041000015203E0030E396E05D0D5DF015202E030
:10042000020E396E10D0C1DF015203E0030E396EA7
:1004300005D0C9DF015202E1010E396E04D0C9D7DF
:10044000015201E0396A39C001F086EF02F0F2CFC3
:100450000DF0F29EE824F76AF736730FF66E040E7D
:10046000F7220A00F550FA6E0800F5500DBEF28E24
:10047000F96EF0030E0426043E04F86AD09E078E3F
:100480003890C29CC29EC150800B7F09C16E9E0EE7
:10049000CF6E580ECE6E850ECD6E9D80C00EF212C0
:1004A000376AC29CC29EC150800B7F09C16E1F0E6D
:1004B000926EA00E936E3750FC0F27E2040F8AEF66
:1004C00002F093908A80EFD5640E396E11D6939026
:1004D0008A90928880A804D0196A186A176A1668E8
:1004E00014D038A006D093928A8241D63890939245
:1004F0008A920BD093948A84ECD693948A9405D0F4
:1005000093968A8621D793968A966AD701C037F048
:10051000D2D70300F2CF0DF0F29EE824F76AF73647
:10052000390FF66E050EF7220A00F550FA6E080034
:10053000F5500DBEF28EF96EC204E204F40400051B
:020000040030CA
:0E00000000C10C1E0000810003C003E003409D
:00000001FF
;PIC18F1220
;CRC=9C1B  CREATED="09-out-25 00:17"
